{
  "abi": [
    {
      "inputs": [
        {
          "internalType": "bytes32",
          "name": "_root",
          "type": "bytes32"
        }
      ],
      "stateMutability": "nonpayable",
      "type": "constructor"
    },
    {
      "inputs": [
        {
          "internalType": "address",
          "name": "spender",
          "type": "address"
        },
        {
          "internalType": "uint256",
          "name": "allowance",
          "type": "uint256"
        },
        {
          "internalType": "uint256",
          "name": "needed",
          "type": "uint256"
        }
      ],
      "name": "ERC20InsufficientAllowance",
      "type": "error"
    },
    {
      "inputs": [
        {
          "internalType": "address",
          "name": "sender",
          "type": "address"
        },
        {
          "internalType": "uint256",
          "name": "balance",
          "type": "uint256"
        },
        {
          "internalType": "uint256",
          "name": "needed",
          "type": "uint256"
        }
      ],
      "name": "ERC20InsufficientBalance",
      "type": "error"
    },
    {
      "inputs": [
        {
          "internalType": "address",
          "name": "approver",
          "type": "address"
        }
      ],
      "name": "ERC20InvalidApprover",
      "type": "error"
    },
    {
      "inputs": [
        {
          "internalType": "address",
          "name": "receiver",
          "type": "address"
        }
      ],
      "name": "ERC20InvalidReceiver",
      "type": "error"
    },
    {
      "inputs": [
        {
          "internalType": "address",
          "name": "sender",
          "type": "address"
        }
      ],
      "name": "ERC20InvalidSender",
      "type": "error"
    },
    {
      "inputs": [
        {
          "internalType": "address",
          "name": "spender",
          "type": "address"
        }
      ],
      "name": "ERC20InvalidSpender",
      "type": "error"
    },
    {
      "anonymous": false,
      "inputs": [
        {
          "indexed": true,
          "internalType": "address",
          "name": "owner",
          "type": "address"
        },
        {
          "indexed": true,
          "internalType": "address",
          "name": "spender",
          "type": "address"
        },
        {
          "indexed": false,
          "internalType": "uint256",
          "name": "value",
          "type": "uint256"
        }
      ],
      "name": "Approval",
      "type": "event"
    },
    {
      "anonymous": false,
      "inputs": [
        {
          "indexed": true,
          "internalType": "address",
          "name": "from",
          "type": "address"
        },
        {
          "indexed": true,
          "internalType": "address",
          "name": "to",
          "type": "address"
        },
        {
          "indexed": false,
          "internalType": "uint256",
          "name": "value",
          "type": "uint256"
        }
      ],
      "name": "Transfer",
      "type": "event"
    },
    {
      "inputs": [
        {
          "internalType": "address",
          "name": "owner",
          "type": "address"
        },
        {
          "internalType": "address",
          "name": "spender",
          "type": "address"
        }
      ],
      "name": "allowance",
      "outputs": [
        {
          "internalType": "uint256",
          "name": "",
          "type": "uint256"
        }
      ],
      "stateMutability": "view",
      "type": "function"
    },
    {
      "inputs": [
        {
          "internalType": "address",
          "name": "spender",
          "type": "address"
        },
        {
          "internalType": "uint256",
          "name": "value",
          "type": "uint256"
        }
      ],
      "name": "approve",
      "outputs": [
        {
          "internalType": "bool",
          "name": "",
          "type": "bool"
        }
      ],
      "stateMutability": "nonpayable",
      "type": "function"
    },
    {
      "inputs": [
        {
          "internalType": "address",
          "name": "account",
          "type": "address"
        }
      ],
      "name": "balanceOf",
      "outputs": [
        {
          "internalType": "uint256",
          "name": "",
          "type": "uint256"
        }
      ],
      "stateMutability": "view",
      "type": "function"
    },
    {
      "inputs": [
        {
          "internalType": "address",
          "name": "to",
          "type": "address"
        },
        {
          "internalType": "uint256",
          "name": "value",
          "type": "uint256"
        },
        {
          "internalType": "bytes32[]",
          "name": "proof",
          "type": "bytes32[]"
        }
      ],
      "name": "claim",
      "outputs": [],
      "stateMutability": "nonpayable",
      "type": "function"
    },
    {
      "inputs": [],
      "name": "decimals",
      "outputs": [
        {
          "internalType": "uint8",
          "name": "",
          "type": "uint8"
        }
      ],
      "stateMutability": "view",
      "type": "function"
    },
    {
      "inputs": [],
      "name": "name",
      "outputs": [
        {
          "internalType": "string",
          "name": "",
          "type": "string"
        }
      ],
      "stateMutability": "view",
      "type": "function"
    },
    {
      "inputs": [],
      "name": "root",
      "outputs": [
        {
          "internalType": "bytes32",
          "name": "",
          "type": "bytes32"
        }
      ],
      "stateMutability": "view",
      "type": "function"
    },
    {
      "inputs": [],
      "name": "symbol",
      "outputs": [
        {
          "internalType": "string",
          "name": "",
          "type": "string"
        }
      ],
      "stateMutability": "view",
      "type": "function"
    },
    {
      "inputs": [],
      "name": "totalSupply",
      "outputs": [
        {
          "internalType": "uint256",
          "name": "",
          "type": "uint256"
        }
      ],
      "stateMutability": "view",
      "type": "function"
    },
    {
      "inputs": [
        {
          "internalType": "address",
          "name": "to",
          "type": "address"
        },
        {
          "internalType": "uint256",
          "name": "value",
          "type": "uint256"
        }
      ],
      "name": "transfer",
      "outputs": [
        {
          "internalType": "bool",
          "name": "",
          "type": "bool"
        }
      ],
      "stateMutability": "nonpayable",
      "type": "function"
    },
    {
      "inputs": [
        {
          "internalType": "address",
          "name": "from",
          "type": "address"
        },
        {
          "internalType": "address",
          "name": "to",
          "type": "address"
        },
        {
          "internalType": "uint256",
          "name": "value",
          "type": "uint256"
        }
      ],
      "name": "transferFrom",
      "outputs": [
        {
          "internalType": "bool",
          "name": "",
          "type": "bool"
        }
      ],
      "stateMutability": "nonpayable",
      "type": "function"
    }
  ],
  "bytecode": {
    "object": "0x60806040523480156200001157600080fd5b5060405162000e3d38038062000e3d833981016040819052620000349162000232565b6040518060400160405280600b81526020016a36b2b935b632aa37b5b2b760a91b81525060405180604001604052806002815260200161135560f21b8152508160039081620000849190620002f1565b506004620000938282620002f1565b505050620000b4336b033b2e3c9fd0803ce8000000620000bd60201b60201c565b600555620003e5565b6001600160a01b038216620000ed5760405163ec442f0560e01b8152600060048201526024015b60405180910390fd5b620000fb60008383620000ff565b5050565b6001600160a01b0383166200012e578060026000828254620001229190620003bd565b90915550620001a29050565b6001600160a01b03831660009081526020819052604090205481811015620001835760405163391434e360e21b81526001600160a01b03851660048201526024810182905260448101839052606401620000e4565b6001600160a01b03841660009081526020819052604090209082900390555b6001600160a01b038216620001c057600280548290039055620001df565b6001600160a01b03821660009081526020819052604090208054820190555b816001600160a01b0316836001600160a01b03167fddf252ad1be2c89b69c2b068fc378daa952ba7f163c4a11628f55a4df523b3ef836040516200022591815260200190565b60405180910390a3505050565b6000602082840312156200024557600080fd5b5051919050565b634e487b7160e01b600052604160045260246000fd5b600181811c908216806200027757607f821691505b6020821081036200029857634e487b7160e01b600052602260045260246000fd5b50919050565b601f821115620002ec57600081815260208120601f850160051c81016020861015620002c75750805b601f850160051c820191505b81811015620002e857828155600101620002d3565b5050505b505050565b81516001600160401b038111156200030d576200030d6200024c565b62000325816200031e845462000262565b846200029e565b602080601f8311600181146200035d5760008415620003445750858301515b600019600386901b1c1916600185901b178555620002e8565b600085815260208120601f198616915b828110156200038e578886015182559484019460019091019084016200036d565b5085821015620003ad5787850151600019600388901b60f8161c191681555b5050505050600190811b01905550565b80820180821115620003df57634e487b7160e01b600052601160045260246000fd5b92915050565b610a4880620003f56000396000f3fe608060405234801561001057600080fd5b50600436106100a95760003560e01c80633d13f874116100715780633d13f8741461012357806370a082311461013857806395d89b4114610161578063a9059cbb14610169578063dd62ed3e1461017c578063ebf0c717146101b557600080fd5b806306fdde03146100ae578063095ea7b3146100cc57806318160ddd146100ef57806323b872dd14610101578063313ce56714610114575b600080fd5b6100b66101be565b6040516100c39190610772565b60405180910390f35b6100df6100da3660046107dc565b610250565b60405190151581526020016100c3565b6002545b6040519081526020016100c3565b6100df61010f366004610806565b61026a565b604051601281526020016100c3565b610136610131366004610858565b61028e565b005b6100f3610146366004610932565b6001600160a01b031660009081526020819052604090205490565b6100b66103d2565b6100df6101773660046107dc565b6103e1565b6100f361018a36600461094d565b6001600160a01b03918216600090815260016020908152604080832093909416825291909152205490565b6100f360055481565b6060600380546101cd90610980565b80601f01602080910402602001604051908101604052809291908181526020018280546101f990610980565b80156102465780601f1061021b57610100808354040283529160200191610246565b820191906000526020600020905b81548152906001019060200180831161022957829003601f168201915b5050505050905090565b60003361025e8185856103ef565b60019150505b92915050565b600033610278858285610401565b61028385858561047f565b506001949350505050565b6001600160a01b03831660009081526006602052604090205460ff16156102ef5760405162461bcd60e51b815260206004820152601060248201526f185b1c9958591e481c9958d95a5d995960821b60448201526064015b60405180910390fd5b6040516bffffffffffffffffffffffff19606085901b16602082015260348101839052600090605401604051602081830303815290604052805190602001209050600061033f83600554846104de565b9050801561039d5760405162461bcd60e51b815260206004820152602560248201527f596f7520617265206e6f7420616c6c6f77656420746f207265636569766520746044820152646f6b656e7360d81b60648201526084016102e6565b6001600160a01b0385166000908152600660205260409020805460ff191660011790556103ca85856103e1565b505050505050565b6060600480546101cd90610980565b60003361025e81858561047f565b6103fc83838360016104f4565b505050565b6001600160a01b038381166000908152600160209081526040808320938616835292905220546000198114610479578181101561046a57604051637dc7a0d960e11b81526001600160a01b038416600482015260248101829052604481018390526064016102e6565b610479848484840360006104f4565b50505050565b6001600160a01b0383166104a957604051634b637e8f60e11b8152600060048201526024016102e6565b6001600160a01b0382166104d35760405163ec442f0560e01b8152600060048201526024016102e6565b6103fc8383836105c9565b6000826104eb85846106f3565b14949350505050565b6001600160a01b03841661051e5760405163e602df0560e01b8152600060048201526024016102e6565b6001600160a01b03831661054857604051634a1406b160e11b8152600060048201526024016102e6565b6001600160a01b038085166000908152600160209081526040808320938716835292905220829055801561047957826001600160a01b0316846001600160a01b03167f8c5be1e5ebec7d5bd14f71427d1e84f3dd0314c0f7b2291e5b200ac8c7c3b925846040516105bb91815260200190565b60405180910390a350505050565b6001600160a01b0383166105f45780600260008282546105e991906109d0565b909155506106669050565b6001600160a01b038316600090815260208190526040902054818110156106475760405163391434e360e21b81526001600160a01b038516600482015260248101829052604481018390526064016102e6565b6001600160a01b03841660009081526020819052604090209082900390555b6001600160a01b038216610682576002805482900390556106a1565b6001600160a01b03821660009081526020819052604090208054820190555b816001600160a01b0316836001600160a01b03167fddf252ad1be2c89b69c2b068fc378daa952ba7f163c4a11628f55a4df523b3ef836040516106e691815260200190565b60405180910390a3505050565b600081815b84518110156107385761072482868381518110610717576107176109e3565b6020026020010151610740565b915080610730816109f9565b9150506106f8565b509392505050565b600081831061075c57600082815260208490526040902061076b565b60008381526020839052604090205b9392505050565b600060208083528351808285015260005b8181101561079f57858101830151858201604001528201610783565b506000604082860101526040601f19601f8301168501019250505092915050565b80356001600160a01b03811681146107d757600080fd5b919050565b600080604083850312156107ef57600080fd5b6107f8836107c0565b946020939093013593505050565b60008060006060848603121561081b57600080fd5b610824846107c0565b9250610832602085016107c0565b9150604084013590509250925092565b634e487b7160e01b600052604160045260246000fd5b60008060006060848603121561086d57600080fd5b610876846107c0565b92506020808501359250604085013567ffffffffffffffff8082111561089b57600080fd5b818701915087601f8301126108af57600080fd5b8135818111156108c1576108c1610842565b8060051b604051601f19603f830116810181811085821117156108e6576108e6610842565b60405291825284820192508381018501918a83111561090457600080fd5b938501935b8285101561092257843584529385019392850192610909565b8096505050505050509250925092565b60006020828403121561094457600080fd5b61076b826107c0565b6000806040838503121561096057600080fd5b610969836107c0565b9150610977602084016107c0565b90509250929050565b600181811c9082168061099457607f821691505b6020821081036109b457634e487b7160e01b600052602260045260246000fd5b50919050565b634e487b7160e01b600052601160045260246000fd5b80820180821115610264576102646109ba565b634e487b7160e01b600052603260045260246000fd5b600060018201610a0b57610a0b6109ba565b506001019056fea26469706673582212207377157246a5be294ac55bd0f19761e0deb228e9a62f2c82bc5b9852f8c1a9d864736f6c63430008150033",
    "linkReferences": {}
  },
  "methodIdentifiers": {
    "allowance(address,address)": "dd62ed3e",
    "approve(address,uint256)": "095ea7b3",
    "balanceOf(address)": "70a08231",
    "claim(address,uint256,bytes32[])": "3d13f874",
    "decimals()": "313ce567",
    "name()": "06fdde03",
    "root()": "ebf0c717",
    "symbol()": "95d89b41",
    "totalSupply()": "18160ddd",
    "transfer(address,uint256)": "a9059cbb",
    "transferFrom(address,address,uint256)": "23b872dd"
  },
  "id": 0
}